:020000040800F2
:1000000048040020C900000801040008FD0300089E
:1000100000000000000000000000000000000000E0
:100020000000000000000000000000009907000828
:100030000000000000000000ED040008B508000802
:10004000F900000800000000F9000008F9000008AD
:10005000F9000008F9000008F9000008090200088A
:1000600000000000F9000008F9000008F90000088D
:10007000F9000008F9000008F9000008000000007D
:10008000F90000080000000000000000F90000086E
:10009000F9000008F9000008F9000008F90000085C
:1000A000F9000008F9000008F9000008F90000084C
:1000B000F90000080348854600F048F8004800476A
:1000C000D10C0008480400200C4880F308880C4834
:1000D0000168090E0B4A914205D10B480B4901609A
:1000E0000B480C4901600C4880470C480047FEE76C
:1000F000FEE7FEE7FEE7FEE7FEE70000480400201B
:10010000040000001F000000181002400100000061
:100110000000014000000000D5080008B5000008FC
:1001200030B50B46014600202022012409E00D468F
:10013000D5409D4205D31D469540491B2546954017
:1001400040191546521E002DF1DC30BD064C01252C
:10015000064E05E0E36807CC2B430C3C984710346F
:10016000B442F7D3FFF7AAFFB0130008D01300087A
:1001700001B504490098086000BF024800680028E3
:10018000FBD108BD1400002010B50121C80400F007
:10019000AFF90121084600F0CBF9FF206130164984
:1001A0000860002008710220C871144800F0ACF803
:1001B0000821022000F0F2FA0521022000F0EEFAF8
:1001C0000621022000F0EAFAFF2061300C490860A5
:1001D000002008710820487101208871084600F04D
:1001E0004FF80720074908700220487001208870E6
:1001F000084600F007F910BD28000020000800485C
:10020000200000203000002010B5FF20013000F059
:1002100029F8002806D008200E490870400100F097
:100220001BF816E0402000F01DF8002806D006203C
:1002300008490870402000F00FF80AE0202000F084
:1002400011F8002805D0052002490870202000F090
:1002500003F810BD330000200149486170470000D9
:100260000004014001460020044A52690A40002A65
:1002700001D0012000E00020704700000004014090
:10028000002120498279002A35D00A461268036885
:100290009A430B461A600A46526803689A430B4613
:1002A0005A60027951180A6803681A430A60154AAD
:1002B000926803689A43134B9A601A46D26803689F
:1002C0009A43104BDA604279102A0CD11A46926890
:1002D00003681A430B4B9A601A46D26803681A43A4
:1002E000084BDA600DE00749427951180A68036843
:1002F0001A430A6005E0027951180A6803689A43B4
:100300000A60704700040140F0B50A46002100234E
:10031000002400BF3DE001258D402B4615681D409F
:100320002C469C4234D11579012D02D01579022D2D
:1003300016D185684F000326BE40B54385605579C8
:100340004E00B540866835438560858801268E401D
:10035000B5438580858896798E40B6B235438580D1
:1003600005684F000326BE40B543056015794E0071
:10037000B540066835430560C5684F000326BE409A
:10038000B543C560D5794E00B540C6683543C560F4
:10039000491C1029BFD3F0BDF0B5002300244D0740
:1003A000EE0E1546B5402B46CD10AE000546203565
:1003B000AD594E07F70E0F26BE40B543CE10B6001E
:1003C00007462037BD51CD10AE003D46AD591D4307
:1003D0002C46CD10AD003E467451F0BD02460020C3
:1003E000138A0B40002B01D0012000E00020704751
:1003F000002A01D0816100E00185704700BFFEE75F
:100400007047000000218278002A27D0184A032371
:100410001B02D21803789B109B00D15802789207D8
:10042000D30EFF229A400B46934319464278920717
:10043000120E03789B07DB0E9A4011430C4A0323EC
:100440001B02D21803789B109B00D1500278D30670
:10045000DB0E01229A40064B1A6007E00278D306B1
:10046000DB0E01229A40024B80331A607047000075
:1004700000E100E010B5002819DA1A4A03071B0F43
:10048000083B9B089B00D2588307DC0EFF23A34048
:100490009A438B071B0E8407E40EA3401A43114BAB
:1004A0000407240F083CA408A4001A5118E00E4ABF
:1004B00003231B02D21883089B00D2588307DC0E4B
:1004C000FF23A3409A438B071B0E8407E40EA3402F
:1004D0001A43054B032424021B198408A4001A5153
:1004E00010BD00001CED00E000E100E070470000DE
:1004F000002905D0054A52690243044B5A6104E0C1
:10050000024A52698243014B5A617047001002400F
:10051000002905D0054AD2690243044BDA6104E0A0
:10052000024AD2698243014BDA61704700100240EF
:10053000002905D0054A92690243044B9A6104E000
:10054000024A92698243014B9A617047001002404F
:10055000FEB5044600250026002002900190009080
:100560000027864840680C2108400546002D06D02B
:10057000042D07D0082D08D00C2D2CD128E0804860
:1005800020602BE07E48206028E07C4840680F21F6
:10059000890408400646794840680321C903084099
:1005A0000290B00C861C0298002803D1754837468B
:1005B00047430BE07148C06A0007000F401C0190E0
:1005C0006F480199FFF7ACFD70430746276005E0CF
:1005D0006D48206002E06A48206000BF00BF6748A5
:1005E0004068F021084005462D096848405D0090AC
:1005F00020680099C840606060484068072109028F
:10060000084005462D0A6148405D009061680098E9
:10061000C140A1605948006BFF2101310840884268
:1006200002D05B48E0600DE0544840680121890336
:100630000840884203D0A0684008E06002E0A0685B
:100640008008E0604D48006B40210840402802D0FF
:100650005048206102E00120C00320614748006B40
:1006600010210840102802D04548606101E0206850
:1006700060614248006B8007800F002802D1A068AB
:10068000A06119E03D48006B8007800F012802D16E
:100690002068A06110E03948006B8007800F0228B5
:1006A00002D18003A06107E03448006B8007800F0F
:1006B000032801D13248A0613048006B03210904AE
:1006C0000840002802D1A068E06120E02B48006BC0
:1006D00003210904084001210904884202D120684D
:1006E000E06114E02548006B032109040840012162
:1006F0004904884202D18010E06108E01F48006B85
:10070000032109040840884201D11D48E0611B48CB
:10071000006B032189040840002802D1A0682062F0
:1007200020E01648006B0321890408400121890458
:10073000884202D12068206214E01048006B032137
:10074000890408400121C904884202D100112062B5
:1007500008E00A48006B032189040840884201D15F
:10076000074820620548006B80210840802802D09D
:100770000548606200E06762FEBD000000100240B4
:1007800000127A0000093D00006CDC0234000020F9
:10079000809FD500128000007047000030B5002215
:1007A0008B071C0F0F23A3401A460B4B8C10A40081
:1007B0001B599343084C8D10AD00635123468C1098
:1007C000A4001B598C07250F0446AC402343024C60
:1007D0008D10AD00635130BD080001400CB5002004
:1007E00001900090314800680121090408432F4915
:1007F000086000BF2D4800680121490408400090AE
:100800000198401C01900098002804D1052109039B
:1008100001988842EED1254800680121490408402A
:10082000002802D00120009001E0002000900098F4
:10083000012839D111201E4908601C4840681B4915
:100840004860084640684860084640687F21C90300
:100850008843164948600846406811210904084346
:1008600012494860084600680121090608430F49FB
:10087000086000BF0D4800680121490608400028B3
:10088000F8D00A4840688008800008494860084657
:100890004068022108430549486000BF034840689A
:1008A0000C2108400828F9D10CBD000000100240BE
:1008B0000020024010B500F04BF805490868411CC3
:1008C000034A1160C72802D900201146086010BDF4
:1008D0001800002010B51B48006801210843194981
:1008E00008600846406818490840164948600846AC
:1008F000006816490840134908600846006801214D
:10090000890488430F490860084640683F2109046C
:1009100088430C4948600846C06A00090001C86263
:100920000846006BFF215431884306490863084696
:10093000406B40084000486300208860FFF74EFF8E
:1009400010BD0000001002400CB8FFF8FFFFF6FEDB
:1009500004480068002804D002480068401E01498D
:100960000860704714000020002904D002680123A9
:100970001A43026003E002685208520002607047A6
:1009800000B587B0E1204002019000200290039062
:10099000049006900C20059001214804FFF7A8FD63
:1009A00001214804FFF7B4FD012202210920C006FD
:1009B000FFF7F2FC012203210920C006FFF7ECFC3F
:1009C00004200F49086002200871012048710020AE
:1009D00088710120C8710920C006FFF795FC082026
:1009E000074908600920C006FFF78EFC01A90548E9
:1009F00000F014F801210348FFF7B6FF07B000BD6F
:100A0000280000200044004002460020D3690B402B
:100A1000002B01D0012000E000207047F0B58BB022
:100A200004460D46002700200A9000262068400852
:100A3000400020606668032109033046884306466B
:100A4000A8680643666026682D480640E96868681D
:100A500008432969084306432660A6680321090262
:100A600030468843064668690643A6606846FFF735
:100A70006FFD2448844202D106980A900DE0224876
:100A8000844202D107980A9007E02048844202D1AC
:100A900008980A9001E002980A9020680121C90391
:100AA000084000280CD029680A9A5000FFF738FB4C
:100AB000074629680A9A5000FFF732FB0E4609E004
:100AC00029680A98FFF72CFB074629680A98FFF760
:100AD00027FB0E4628684008B04200D87F1C2068DB
:100AE0000121C9030840002806D03807460F3846C0
:100AF0000749084030430746A7810BB0F0BD00000E
:100B0000F3E9FFFF00380140004400400048004086
:100B1000F0FF0000CA05D20D028570470FB410B572
:100B200003A9044B044A029800F018F810BC08BC52
:100B300004B01847AD0C00084400002002E008C8CB
:100B4000121F08C1002AFAD170477047002001E047
:100B500001C1121F002AFBD170470000FFB58DB004
:100B60000446002506E025280AD0109A0F999047E0
:100B7000641C6D1C20780028F5D1284611B0F0BD0A
:100B800000270121484A009700E00743641C2378AE
:100B90000846203B98401042F7D120782E2817D1E4
:100BA000042007436078641C2A280CD10E98641C2A
:100BB00002C800910E900BE000990A22514330398F
:100BC0004018641C00902078014630390929F3D977
:100BD00020780028D1D0642808D0692806D075284C
:100BE0001ED0109A0F9990476D1C5BE00A200E9959
:100BF000019001C90E91002802DA40422D2102E045
:100C0000390504D52B216A461172012103E0F90749
:100C100004D02021F7E70BAE0B910DE00021FAE79D
:100C20000A200E99019001C90E91F7E70199FFF78B
:100C300077FA3031761E31700028F7D103A8801B77
:100C400020300190780701D5009801E00120009044
:100C50000199884201DD401A00E000200027009041
:100C600006E002A8109AC05D0F9990476D1C7F1C8A
:100C70000B988742F5DB04E0109A30200F999047DB
:100C80006D1C0099481E00900029F5DC05E03078C5
:100C9000109A761C0F9990476D1C0199481E01907F
:100CA0000029F4DC641C65E70928010070B50446DE
:100CB0000D46E1B20548FFF72DFF00BF8021034834
:100CC000FFF7A2FE0028F9D0204670BD0044004086
:100CD000FFF756FE00BF40215548FFF795FE00285C
:100CE000F9D07D21C90053480068FFF719FA04467E
:100CF000601E5149884201D901200CE0601E4F4915
:100D000048610321081FFFF7B5FB00204B498861AC
:100D1000072008610020002801D000BFFEE7012164
:100D20004804FFF7E5FBC020454908600120087131
:100D300000208871032048710020C8710920C00676
:100D4000FFF7E2FA0121C804FFF7D2FB0520800279
:100D50003B49086001200871002088710320487118
:100D60000020C8713748FFF7CFFAC0200921C90613
:100D700088610520800233498861FFF705FA55E054
:100D800031480078052833D006281DD008284BD1DB
:100D90000520FFF7EDF900F025FA0520FFF7E8F947
:100DA0002A4800780A2803D129A0FFF7B7FE04E0FB
:100DB0002648017828A0FFF7B1FE0A20FFF7D8F9EE
:100DC00000202149087030E00520FFF7D1F900F03C
:100DD00029F90520FFF7CCF91C4801781EA0FFF780
:100DE0009DFE0A20FFF7C4F90020174908701CE097
:100DF0000520FFF7BDF900F035F80520FFF7B8F939
:100E0000124800780B2803D114A0FFF787FE04E0F6
:100E10000E48017810A0FFF781FE0A20FFF7A8F91D
:100E200000200949087000E000BF00BFA8E70000EB
:100E30000044004000000020FFFFFF0000E000E051
:100E40002800002000080048330000201D0000207A
:100E50007374617200000000256400006E756D629D
:100E60006572000010B5CDE014216A480068FFF7F4
:100E700057F9002903D10020674908701FE01421A9
:100E800064480068FFF74CF9052903D10120624945
:100E9000087014E014215F480068FFF741F90A293F
:100EA00003D102205C49087009E014215948006808
:100EB000FFF736F90F2902D1032057490870564829
:100EC0000078002806D0012822D0022844D0032828
:100ED0007ED166E00022C0210920C006FFF788FA13
:100EE000012291024D48FFF783FA002201210903F4
:100EF0004A48FFF77DFA05204749087020214748F6
:100F0000FFF76CFA002802D003204549087070E012
:100F1000002280210920C006FFF76AFA0022402142
:100F20000920C006FFF764FA0022012189023B482C
:100F3000FFF75EFA012211033848FFF759FA05203E
:100F40003549087020213548FFF748FA002802D0BB
:100F50000620334908704CE0012240210920C006D8
:100F6000FFF746FA002280210920C006FFF740FA69
:100F70000022012189022948FFF73AFA00220121C3
:100F800009032648FFF734FA052023490870202179
:100F90002248FFF723FA002802D0092020490870D0
:100FA00027E0002240210920C006FFF721FA012294
:100FB00080210920C006FFF71BFA002201218902C7
:100FC0001648FFF715FA002201210903134800E033
:100FD0000EE0FFF70DFA05200F49087020210F4899
:100FE000FFF7FCF9002802D00B200D49087000E043
:100FF00000BF00BFC0200921C9068861052080020A
:101000000649886120210548FFF7E8F9002800D04B
:101010002AE710BD180000201C000020000800482E
:101020001D00002010B5CDE014216A480068FFF7CC
:1010300077F8002903D10020674908701FE01421C8
:1010400064480068FFF76CF8052903D10120624964
:10105000087014E014215F480068FFF761F80A295E
:1010600003D102205C49087009E014215948006846
:10107000FFF756F80F2902D1032057490870564848
:101080000078002806D0012822D0022844D0032866
:101090007ED166E00022C0210920C006FFF7A8F932
:1010A000012291024D48FFF7A3F900220121090313
:1010B0004A48FFF79DF905204749087040214748F5
:1010C000FFF78CF9002802D002204549087070E033
:1010D000002280210920C006FFF78AF90022402162
:1010E0000920C006FFF784F90022012189023B484C
:1010F000FFF77EF9012211033848FFF779F905203F
:101100003549087040213548FFF768F9002802D0BA
:101110000520334908704CE0012240210920C00617
:10112000FFF766F9002280210920C006FFF760F969
:101130000022012189022948FFF75AF900220121E2
:1011400009032648FFF754F9052023490870402178
:101150002248FFF743F9002802D0082020490870F0
:1011600027E0002240210920C006FFF741F90122B3
:1011700080210920C006FFF73BF9002201218902E6
:101180001648FFF735F9002201210903134800E052
:101190000EE0FFF72DF905200F49087040210F4898
:1011A000FFF71CF9002802D000200D49087000E06C
:1011B00000BF00BFC0200921C90688610520800248
:1011C0000649886140210548FFF708F9002800D04A
:1011D0002AE710BD180000201C000020000800486D
:1011E0001D00002010B5D1E014216D480068FEF705
:1011F00097FF002903D100206A4908701FE01421DD
:1012000067480068FEF78CFF052903D10120654976
:10121000087014E0142162480068FEF781FF0A2973
:1012200003D102205F49087009E014215C4800687E
:10123000FEF776FF0F2902D103205A49087059485A
:101240000078002806D0012823D0022846D00328A1
:101250007ED169E00022C0210920C006FFF7C8F84E
:10126000012291025048FFF7C3F80022012109032F
:101270004D48FFF7BDF805204A490870FF210131AC
:101280004948FFF7ABF8002802D001204749087011
:1012900073E0002280210920C006FFF7A9F8002290
:1012A00040210920C006FFF7A3F80022012189028E
:1012B0003D48FFF79DF8012211033B48FFF798F8DE
:1012C000052038490870FF2101313748FFF786F8BB
:1012D000002802D00420354908704EE00122402148
:1012E0000920C006FFF784F8002280210920C006EB
:1012F000FFF77EF80022012189022B48FFF778F8DA
:101300000022012109032848FFF772F8052025492A
:101310000870FF2101312448FFF760F8002802D04F
:1013200007202249087028E0002240210920C00639
:10133000FFF75EF8012280210920C006FFF758F868
:101340000022012189021848FFF752F8002200E02C
:1013500012E0012109031448FFF74AF8052011495A
:101360000870FF2101311048FFF738F8002802D03B
:101370000A200E49087000E000BF00BFC02009210C
:10138000C90688610520800207498861FF21013173
:101390000548FFF723F8002800D025E710BD00001E
:1013A000180000201C000020000800481D0000203C
:1013B000D013000800000020480000003C0B00088B
:1013C0001814000848000020000400004C0B00081E
:1013D000006CDC02000000000000000001020304B9
:1013E00006070809000000000000000000000000DF
:1013F00000000000000000000000000000000000ED
:1014000000000000000000000102030401020304C8
:081410000607080900000000B6
:04000005080000B53A
:00000001FF
